{
  "_format": "hh-sol-artifact-1",
  "contractName": "CryptoSocialBounty",
  "sourceName": "contracts/CryptoSocialBounty.sol",
  "abi": [
    {
      "inputs": [],
      "stateMutability": "nonpayable",
      "type": "constructor"
    },
    {
      "anonymous": false,
      "inputs": [
        {
          "indexed": false,
          "internalType": "string",
          "name": "bountyUrl",
          "type": "string"
        },
        {
          "indexed": false,
          "internalType": "uint256",
          "name": "bountyAmount",
          "type": "uint256"
        },
        {
          "indexed": false,
          "internalType": "address",
          "name": "bountyCreator",
          "type": "address"
        },
        {
          "indexed": false,
          "internalType": "uint256",
          "name": "expirationDate",
          "type": "uint256"
        }
      ],
      "name": "BountyCreated",
      "type": "event"
    },
    {
      "anonymous": false,
      "inputs": [
        {
          "indexed": false,
          "internalType": "string",
          "name": "bountyUrl",
          "type": "string"
        },
        {
          "indexed": false,
          "internalType": "uint256",
          "name": "bountyAmount",
          "type": "uint256"
        },
        {
          "indexed": false,
          "internalType": "address",
          "name": "bountyCreator",
          "type": "address"
        },
        {
          "indexed": false,
          "internalType": "uint256",
          "name": "expirationDate",
          "type": "uint256"
        }
      ],
      "name": "BountyRedeemed",
      "type": "event"
    },
    {
      "anonymous": false,
      "inputs": [
        {
          "indexed": true,
          "internalType": "address",
          "name": "previousOwner",
          "type": "address"
        },
        {
          "indexed": true,
          "internalType": "address",
          "name": "newOwner",
          "type": "address"
        }
      ],
      "name": "OwnershipTransferred",
      "type": "event"
    },
    {
      "inputs": [],
      "name": "_invalidateContract",
      "outputs": [],
      "stateMutability": "nonpayable",
      "type": "function"
    },
    {
      "inputs": [
        {
          "internalType": "string",
          "name": "bountyUrl",
          "type": "string"
        },
        {
          "internalType": "uint256",
          "name": "expirationDate",
          "type": "uint256"
        }
      ],
      "name": "addBounty",
      "outputs": [],
      "stateMutability": "payable",
      "type": "function"
    },
    {
      "inputs": [
        {
          "internalType": "string",
          "name": "",
          "type": "string"
        }
      ],
      "name": "bounties",
      "outputs": [
        {
          "internalType": "string",
          "name": "bountyUrl",
          "type": "string"
        },
        {
          "internalType": "uint256",
          "name": "bountyAmount",
          "type": "uint256"
        },
        {
          "internalType": "address",
          "name": "bountyCreator",
          "type": "address"
        },
        {
          "internalType": "uint256",
          "name": "expirationDate",
          "type": "uint256"
        },
        {
          "internalType": "bool",
          "name": "exists",
          "type": "bool"
        }
      ],
      "stateMutability": "view",
      "type": "function"
    },
    {
      "inputs": [
        {
          "internalType": "string",
          "name": "_bountyUrl",
          "type": "string"
        }
      ],
      "name": "bountyCreatorRedeem",
      "outputs": [],
      "stateMutability": "nonpayable",
      "type": "function"
    },
    {
      "inputs": [
        {
          "internalType": "string",
          "name": "_bountyUrl",
          "type": "string"
        }
      ],
      "name": "bountyRedeem",
      "outputs": [],
      "stateMutability": "nonpayable",
      "type": "function"
    },
    {
      "inputs": [
        {
          "internalType": "string",
          "name": "_bountyUrl",
          "type": "string"
        }
      ],
      "name": "getBounty",
      "outputs": [
        {
          "internalType": "uint256",
          "name": "bountyAmount",
          "type": "uint256"
        },
        {
          "internalType": "address",
          "name": "bountyCreator",
          "type": "address"
        },
        {
          "internalType": "uint256",
          "name": "expirationDate",
          "type": "uint256"
        },
        {
          "internalType": "string",
          "name": "bountyUrl",
          "type": "string"
        }
      ],
      "stateMutability": "view",
      "type": "function"
    },
    {
      "inputs": [],
      "name": "owner",
      "outputs": [
        {
          "internalType": "address",
          "name": "",
          "type": "address"
        }
      ],
      "stateMutability": "view",
      "type": "function"
    },
    {
      "inputs": [],
      "name": "renounceOwnership",
      "outputs": [],
      "stateMutability": "nonpayable",
      "type": "function"
    },
    {
      "inputs": [
        {
          "internalType": "address",
          "name": "newOwner",
          "type": "address"
        }
      ],
      "name": "transferOwnership",
      "outputs": [],
      "stateMutability": "nonpayable",
      "type": "function"
    }
  ],
  "bytecode": "0x60806040526000600260146101000a81548160ff02191690831515021790555034801561002b57600080fd5b5061004861003d61008e60201b60201c565b61009660201b60201c565b33600260006101000a81548173ffffffffffffffffffffffffffffffffffffffff021916908373ffffffffffffffffffffffffffffffffffffffff16021790555061015a565b600033905090565b60008060009054906101000a900473ffffffffffffffffffffffffffffffffffffffff169050816000806101000a81548173ffffffffffffffffffffffffffffffffffffffff021916908373ffffffffffffffffffffffffffffffffffffffff1602179055508173ffffffffffffffffffffffffffffffffffffffff168173ffffffffffffffffffffffffffffffffffffffff167f8be0079c531659141344cd1fd0a4f28419497f9722a3daafe3b4186f6b6457e060405160405180910390a35050565b61236d806200016a6000396000f3fe6080604052600436106100865760003560e01c8063715018a611610059578063715018a61461014c57806372eceaea146101635780638da5cb5b1461018c578063e19ab2be146101b7578063f2fde38b146101d357610086565b80630ac969521461008b5780631bd926b6146100b45780633cbef373146100cb57806357f560611461010c575b600080fd5b34801561009757600080fd5b506100b260048036038101906100ad91906117bd565b6101fc565b005b3480156100c057600080fd5b506100c961070f565b005b3480156100d757600080fd5b506100f260048036038101906100ed91906117bd565b6107fe565b604051610103959493929190611bc2565b60405180910390f35b34801561011857600080fd5b50610133600480360381019061012e91906117bd565b6108ff565b6040516101439493929190611e2a565b60405180910390f35b34801561015857600080fd5b50610161610bb6565b005b34801561016f57600080fd5b5061018a600480360381019061018591906117bd565b610c3e565b005b34801561019857600080fd5b506101a161103b565b6040516101ae9190611b39565b60405180910390f35b6101d160048036038101906101cc919061175d565b611064565b005b3480156101df57600080fd5b506101fa60048036038101906101f59190611730565b6113d9565b005b6102046114d1565b73ffffffffffffffffffffffffffffffffffffffff1661022261103b565b73ffffffffffffffffffffffffffffffffffffffff1614610278576040517f08c379a000000000000000000000000000000000000000000000000000000000815260040161026f90611d8a565b60405180910390fd5b60001515600260149054906101000a900460ff161515146102ce576040517f08c379a00000000000000000000000000000000000000000000000000000000081526004016102c590611daa565b60405180910390fd5b600260149054906101000a900460ff161561031e576040517f08c379a000000000000000000000000000000000000000000000000000000000815260040161031590611daa565b60405180910390fd5b6000815111610362576040517f08c379a000000000000000000000000000000000000000000000000000000000815260040161035990611dea565b60405180910390fd5b600115156001826040516103769190611b22565b908152602001604051809103902060040160009054906101000a900460ff161515146103d7576040517f08c379a00000000000000000000000000000000000000000000000000000000081526004016103ce90611dca565b60405180910390fd5b60006001826040516103e99190611b22565b9081526020016040518091039020600101541161043b576040517f08c379a000000000000000000000000000000000000000000000000000000000815260040161043290611d4a565b60405180910390fd5b600060018260405161044d9190611b22565b90815260200160405180910390206040518060a001604052908160008201805461047690611f92565b80601f01602080910402602001604051908101604052809291908181526020018280546104a290611f92565b80156104ef5780601f106104c4576101008083540402835291602001916104ef565b820191906000526020600020905b8154815290600101906020018083116104d257829003601f168201915b50505050508152602001600182015481526020016002820160009054906101000a900473ffffffffffffffffffffffffffffffffffffffff1673ffffffffffffffffffffffffffffffffffffffff1673ffffffffffffffffffffffffffffffffffffffff168152602001600382015481526020016004820160009054906101000a900460ff16151515158152505090503373ffffffffffffffffffffffffffffffffffffffff166108fc82602001519081150290604051600060405180830381858888f193505050501580156105c9573d6000803e3d6000fd5b5060006001836040516105dc9190611b22565b908152602001604051809103902060040160006101000a81548160ff02191690831515021790555060006001836040516106169190611b22565b9081526020016040518091039020600101819055507f2a9201dd90f6f8348e7521f10ad4eab0460ee705e8a276822def500e988165ea60018360405161065c9190611b22565b908152602001604051809103902060000160018460405161067d9190611b22565b90815260200160405180910390206001015460018560405161069f9190611b22565b908152602001604051809103902060020160009054906101000a900473ffffffffffffffffffffffffffffffffffffffff166001866040516106e19190611b22565b9081526020016040518091039020600301546040516107039493929190611c3e565b60405180910390a15050565b6107176114d1565b73ffffffffffffffffffffffffffffffffffffffff1661073561103b565b73ffffffffffffffffffffffffffffffffffffffff161461078b576040517f08c379a000000000000000000000000000000000000000000000000000000000815260040161078290611d8a565b60405180910390fd5b60001515600260149054906101000a900460ff161515146107e1576040517f08c379a00000000000000000000000000000000000000000000000000000000081526004016107d890611daa565b60405180910390fd5b6001600260146101000a81548160ff021916908315150217905550565b60018180516020810182018051848252602083016020850120818352809550505050505060009150905080600001805461083790611f92565b80601f016020809104026020016040519081016040528092919081815260200182805461086390611f92565b80156108b05780601f10610885576101008083540402835291602001916108b0565b820191906000526020600020905b81548152906001019060200180831161089357829003601f168201915b5050505050908060010154908060020160009054906101000a900473ffffffffffffffffffffffffffffffffffffffff16908060030154908060040160009054906101000a900460ff16905085565b6000806000606060001515600260149054906101000a900460ff1615151461095c576040517f08c379a000000000000000000000000000000000000000000000000000000000815260040161095390611daa565b60405180910390fd5b60008551116109a0576040517f08c379a000000000000000000000000000000000000000000000000000000000815260040161099790611dea565b60405180910390fd5b60006001866040516109b29190611b22565b90815260200160405180910390206040518060a00160405290816000820180546109db90611f92565b80601f0160208091040260200160405190810160405280929190818152602001828054610a0790611f92565b8015610a545780601f10610a2957610100808354040283529160200191610a54565b820191906000526020600020905b815481529060010190602001808311610a3757829003601f168201915b50505050508152602001600182015481526020016002820160009054906101000a900473ffffffffffffffffffffffffffffffffffffffff1673ffffffffffffffffffffffffffffffffffffffff1673ffffffffffffffffffffffffffffffffffffffff168152602001600382015481526020016004820160009054906101000a900460ff161515151581525050905085604051602001610af59190611b54565b60405160208183030381529060405280519060200120600187604051610b1b9190611b22565b9081526020016040518091039020600001604051602001610b3c9190611c1c565b6040516020818303038152906040528051906020012014610b92576040517f08c379a0000000000000000000000000000000000000000000000000000000008152600401610b8990611d2a565b60405180910390fd5b80602001518160400151826060015183600001519450945094509450509193509193565b610bbe6114d1565b73ffffffffffffffffffffffffffffffffffffffff16610bdc61103b565b73ffffffffffffffffffffffffffffffffffffffff1614610c32576040517f08c379a0000000000000000000000000000000000000000000000000000000008152600401610c2990611d8a565b60405180910390fd5b610c3c60006114d9565b565b60001515600260149054906101000a900460ff16151514610c94576040517f08c379a0000000000000000000000000000000000000000000000000000000008152600401610c8b90611daa565b60405180910390fd5b6000815111610cd8576040517f08c379a0000000000000000000000000000000000000000000000000000000008152600401610ccf90611dea565b60405180910390fd5b600181604051610ce89190611b22565b908152602001604051809103902060020160009054906101000a900473ffffffffffffffffffffffffffffffffffffffff1673ffffffffffffffffffffffffffffffffffffffff163373ffffffffffffffffffffffffffffffffffffffff1614610d87576040517f08c379a0000000000000000000000000000000000000000000000000000000008152600401610d7e90611cca565b60405180910390fd5b42600182604051610d989190611b22565b90815260200160405180910390206003015410610dea576040517f08c379a0000000000000000000000000000000000000000000000000000000008152600401610de190611caa565b60405180910390fd5b6000600182604051610dfc9190611b22565b90815260200160405180910390206001015411610e4e576040517f08c379a0000000000000000000000000000000000000000000000000000000008152600401610e4590611d4a565b60405180910390fd5b600181604051610e5e9190611b22565b908152602001604051809103902060020160009054906101000a900473ffffffffffffffffffffffffffffffffffffffff1673ffffffffffffffffffffffffffffffffffffffff166108fc600183604051610eb99190611b22565b9081526020016040518091039020600101549081150290604051600060405180830381858888f19350505050158015610ef6573d6000803e3d6000fd5b506000600182604051610f099190611b22565b908152602001604051809103902060040160006101000a81548160ff0219169083151502179055506000600182604051610f439190611b22565b9081526020016040518091039020600101819055507f2a9201dd90f6f8348e7521f10ad4eab0460ee705e8a276822def500e988165ea600182604051610f899190611b22565b9081526020016040518091039020600001600183604051610faa9190611b22565b908152602001604051809103902060010154600184604051610fcc9190611b22565b908152602001604051809103902060020160009054906101000a900473ffffffffffffffffffffffffffffffffffffffff1660018560405161100e9190611b22565b9081526020016040518091039020600301546040516110309493929190611c3e565b60405180910390a150565b60008060009054906101000a900473ffffffffffffffffffffffffffffffffffffffff16905090565b60001515600260149054906101000a900460ff161515146110ba576040517f08c379a00000000000000000000000000000000000000000000000000000000081526004016110b190611daa565b60405180910390fd5b600034116110fd576040517f08c379a00000000000000000000000000000000000000000000000000000000081526004016110f490611d6a565b60405180910390fd5b60008383905011611143576040517f08c379a000000000000000000000000000000000000000000000000000000000815260040161113a90611dea565b60405180910390fd5b639d9012e68110611189576040517f08c379a000000000000000000000000000000000000000000000000000000000815260040161118090611d0a565b60405180910390fd5b4281116111cb576040517f08c379a00000000000000000000000000000000000000000000000000000000081526004016111c290611cea565b60405180910390fd5b60001515600184846040516111e1929190611b09565b908152602001604051809103902060040160009054906101000a900460ff16151514611242576040517f08c379a000000000000000000000000000000000000000000000000000000000815260040161123990611e0a565b60405180910390fd5b60006040518060a0016040528085858080601f016020809104026020016040519081016040528093929190818152602001838380828437600081840152601f19601f8201169050808301925050505050505081526020013481526020013373ffffffffffffffffffffffffffffffffffffffff16815260200183815260200160011515815250905080600185856040516112dd929190611b09565b9081526020016040518091039020600082015181600001908051906020019061130792919061159d565b506020820151816001015560408201518160020160006101000a81548173ffffffffffffffffffffffffffffffffffffffff021916908373ffffffffffffffffffffffffffffffffffffffff1602179055506060820151816003015560808201518160040160006101000a81548160ff0219169083151502179055509050507f0c75937d438b61b08ec5062af814183f2d6b1a6f24869a56875098ab12aedc4e81600001518260200151836040015184606001516040516113cb9493929190611b76565b60405180910390a150505050565b6113e16114d1565b73ffffffffffffffffffffffffffffffffffffffff166113ff61103b565b73ffffffffffffffffffffffffffffffffffffffff1614611455576040517f08c379a000000000000000000000000000000000000000000000000000000000815260040161144c90611d8a565b60405180910390fd5b600073ffffffffffffffffffffffffffffffffffffffff168173ffffffffffffffffffffffffffffffffffffffff1614156114c5576040517f08c379a00000000000000000000000000000000000000000000000000000000081526004016114bc90611c8a565b60405180910390fd5b6114ce816114d9565b50565b600033905090565b60008060009054906101000a900473ffffffffffffffffffffffffffffffffffffffff169050816000806101000a81548173ffffffffffffffffffffffffffffffffffffffff021916908373ffffffffffffffffffffffffffffffffffffffff1602179055508173ffffffffffffffffffffffffffffffffffffffff168173ffffffffffffffffffffffffffffffffffffffff167f8be0079c531659141344cd1fd0a4f28419497f9722a3daafe3b4186f6b6457e060405160405180910390a35050565b8280546115a990611f92565b90600052602060002090601f0160209004810192826115cb5760008555611612565b82601f106115e457805160ff1916838001178555611612565b82800160010185558215611612579182015b828111156116115782518255916020019190600101906115f6565b5b50905061161f9190611623565b5090565b5b8082111561163c576000816000905550600101611624565b5090565b600061165361164e84611e9b565b611e76565b90508281526020810184848401111561166f5761166e612062565b5b61167a848285611f50565b509392505050565b60008135905061169181612309565b92915050565b60008083601f8401126116ad576116ac612058565b5b8235905067ffffffffffffffff8111156116ca576116c9612053565b5b6020830191508360018202830111156116e6576116e561205d565b5b9250929050565b600082601f83011261170257611701612058565b5b8135611712848260208601611640565b91505092915050565b60008135905061172a81612320565b92915050565b6000602082840312156117465761174561206c565b5b600061175484828501611682565b91505092915050565b6000806000604084860312156117765761177561206c565b5b600084013567ffffffffffffffff81111561179457611793612067565b5b6117a086828701611697565b935093505060206117b38682870161171b565b9150509250925092565b6000602082840312156117d3576117d261206c565b5b600082013567ffffffffffffffff8111156117f1576117f0612067565b5b6117fd848285016116ed565b91505092915050565b61180f81611f08565b82525050565b61181e81611f1a565b82525050565b60006118308385611efd565b935061183d838584611f50565b82840190509392505050565b600061185482611ee1565b61185e8185611eec565b935061186e818560208601611f5f565b61187781612071565b840191505092915050565b600061188d82611ee1565b6118978185611efd565b93506118a7818560208601611f5f565b80840191505092915050565b600081546118c081611f92565b6118ca8186611eec565b945060018216600081146118e557600181146118f75761192a565b60ff198316865260208601935061192a565b61190085611ecc565b60005b8381101561192257815481890152600182019150602081019050611903565b808801955050505b50505092915050565b6000611940602683611eec565b915061194b82612082565b604082019050919050565b6000611963601983611eec565b915061196e826120d1565b602082019050919050565b6000611986601e83611eec565b9150611991826120fa565b602082019050919050565b60006119a9603083611eec565b91506119b482612123565b604082019050919050565b60006119cc601d83611eec565b91506119d782612172565b602082019050919050565b60006119ef601583611eec565b91506119fa8261219b565b602082019050919050565b6000611a12601a83611eec565b9150611a1d826121c4565b602082019050919050565b6000611a35602483611eec565b9150611a40826121ed565b604082019050919050565b6000611a58602083611eec565b9150611a638261223c565b602082019050919050565b6000611a7b601783611eec565b9150611a8682612265565b602082019050919050565b6000611a9e601283611eec565b9150611aa98261228e565b602082019050919050565b6000611ac1601883611eec565b9150611acc826122b7565b602082019050919050565b6000611ae4601583611eec565b9150611aef826122e0565b602082019050919050565b611b0381611f46565b82525050565b6000611b16828486611824565b91508190509392505050565b6000611b2e8284611882565b915081905092915050565b6000602082019050611b4e6000830184611806565b92915050565b60006020820190508181036000830152611b6e8184611849565b905092915050565b60006080820190508181036000830152611b908187611849565b9050611b9f6020830186611afa565b611bac6040830185611806565b611bb96060830184611afa565b95945050505050565b600060a0820190508181036000830152611bdc8188611849565b9050611beb6020830187611afa565b611bf86040830186611806565b611c056060830185611afa565b611c126080830184611815565b9695505050505050565b60006020820190508181036000830152611c3681846118b3565b905092915050565b60006080820190508181036000830152611c5881876118b3565b9050611c676020830186611afa565b611c746040830185611806565b611c816060830184611afa565b95945050505050565b60006020820190508181036000830152611ca381611933565b9050919050565b60006020820190508181036000830152611cc381611956565b9050919050565b60006020820190508181036000830152611ce381611979565b9050919050565b60006020820190508181036000830152611d038161199c565b9050919050565b60006020820190508181036000830152611d23816119bf565b9050919050565b60006020820190508181036000830152611d43816119e2565b9050919050565b60006020820190508181036000830152611d6381611a05565b9050919050565b60006020820190508181036000830152611d8381611a28565b9050919050565b60006020820190508181036000830152611da381611a4b565b9050919050565b60006020820190508181036000830152611dc381611a6e565b9050919050565b60006020820190508181036000830152611de381611a91565b9050919050565b60006020820190508181036000830152611e0381611ab4565b9050919050565b60006020820190508181036000830152611e2381611ad7565b9050919050565b6000608082019050611e3f6000830187611afa565b611e4c6020830186611806565b611e596040830185611afa565b8181036060830152611e6b8184611849565b905095945050505050565b6000611e80611e91565b9050611e8c8282611fc4565b919050565b6000604051905090565b600067ffffffffffffffff821115611eb657611eb5612024565b5b611ebf82612071565b9050602081019050919050565b60008190508160005260206000209050919050565b600081519050919050565b600082825260208201905092915050565b600081905092915050565b6000611f1382611f26565b9050919050565b60008115159050919050565b600073ffffffffffffffffffffffffffffffffffffffff82169050919050565b6000819050919050565b82818337600083830152505050565b60005b83811015611f7d578082015181840152602081019050611f62565b83811115611f8c576000848401525b50505050565b60006002820490506001821680611faa57607f821691505b60208210811415611fbe57611fbd611ff5565b5b50919050565b611fcd82612071565b810181811067ffffffffffffffff82111715611fec57611feb612024565b5b80604052505050565b7f4e487b7100000000000000000000000000000000000000000000000000000000600052602260045260246000fd5b7f4e487b7100000000000000000000000000000000000000000000000000000000600052604160045260246000fd5b600080fd5b600080fd5b600080fd5b600080fd5b600080fd5b600080fd5b6000601f19601f8301169050919050565b7f4f776e61626c653a206e6577206f776e657220697320746865207a65726f206160008201527f6464726573730000000000000000000000000000000000000000000000000000602082015250565b7f426f756e7479206973206e6f7420657870697265642079657400000000000000600082015250565b7f4f6e6c7920626f756e74792063726561746f722063616e2072656465656d0000600082015250565b7f426f756e74792065787069726174696f6e2064617465206d757374206265206760008201527f726561746572207468616e206e6f772100000000000000000000000000000000602082015250565b7f44617465206d75737420626520696e20556e6978205365636f6e647321000000600082015250565b7f426f756e747920646f65736e2774206578697374730000000000000000000000600082015250565b7f426f756e747920697320616c72656164792072656465656d6564000000000000600082015250565b7f426f756e747920616d6f756e74206d757374206265206772656174657220746860008201527f616e203000000000000000000000000000000000000000000000000000000000602082015250565b7f4f776e61626c653a2063616c6c6572206973206e6f7420746865206f776e6572600082015250565b7f436f6e747261637420697320696e76616c696461746564000000000000000000600082015250565b7f426f756e7479206d757374206578697374730000000000000000000000000000600082015250565b7f426f756e74792055524c206d7573742062652076616c69640000000000000000600082015250565b7f426f756e747920616c7265616479206578697374730000000000000000000000600082015250565b61231281611f08565b811461231d57600080fd5b50565b61232981611f46565b811461233457600080fd5b5056fea26469706673582212209b4e8760859a3759be804853b3b3272feba5f007e5300f2159bdd4e19c2abc7f64736f6c63430008070033",
  "linkReferences": {},
  "deployedLinkReferences": {}
}